:100000000C9434000C94E2000C9451000C945100B8
:100010000C9451000C9451000C9451000C9451001C
:100020000C9451000C9451000C9451000C9453000A
:100030000C9451000C9451000C9451000C945100FC
:100040000C9451000C9451000C9451000C945100EC
:100050000C9451000C9451000C9451000C945100DC
:100060000C9451000C94510011241FBECFEFD8E026
:10007000DEBFCDBF11E0A0E0B1E0EEE7F3E002C0EB
:1000800005900D92A231B107D9F721E0A2E1B1E0CC
:1000900001C01D92AA31B207E1F70E942A010C9417
:1000A000BD010C9400001F920F920FB60F92112405
:1000B0008F9380911401882329F08091140181503D
:1000C000809314018F910F900FBE0F901F90189581
:1000D000882321F085B1806185B903C085B18F7E09
:1000E00085B9662321F085B1806285B9089585B10F
:1000F0008F7D85B908951092130180E006C0E82F26
:10010000F0E0EB5EFE4F10828F5F8530C0F3089504
:1001100040E049C055B1842F90E021E030E0042E4A
:1001200002C0220F331F0A94E2F7722F622F6095EC
:10013000562355B9EFE3FFE13197F1F700C0000016
:100140004C990AC0FC01EE0FFF1F8E0F9F1FFC0190
:10015000EB5FFE4F808119C04D990AC0FC01EE0F84
:10016000FF1F8E0F9F1FFC01EB5FFE4F81810DC0B3
:100170004E990AC0FC01EE0FFF1F8E0F9F1FFC015E
:10018000EB5FFE4F828101C080E0882341F099B18E
:1001900090779037E1F795B1792B75B9089585B1CE
:1001A000282B25B94F5F443008F4B4CF80E0089580
:1001B000882321F088E18093B40008958FE0809334
:1001C000B40008951F920F920FB60F9211242F932F
:1001D0003F934F935F936F937F938F939F93AF93CF
:1001E000BF93EF93FF9380911401811103C082E0CC
:1001F0008093140180911201882319F0823059F004
:1002000018C081E0809312010E947B0060E080E0D2
:100210000E9468000EC01092120180E00E94D80077
:100220000E947B0081E00E94D80060E081E00E9493
:100230006800FF91EF91BF91AF919F918F917F9156
:100240006F915F914F913F912F910F900FBE0F9043
:100250001F90189584B1806384B984B18F6084B98C
:1002600085B18F6085B98AB18F788AB98BB1806783
:100270008BB98AB18B7F8AB98BB184608BB98AB113
:1002800088608AB9E0EBF0E0808183628083E1EBF3
:10029000F0E080818760808381E00E94D800E9E6F9
:1002A000F0E08081826080838DB381608DBBE1E866
:1002B000F0E080818B60808383E294EF90938900EB
:1002C00080938800EFE6F0E080818260808360E0C8
:1002D00081E00E9468007894809112018130E1F7FA
:1002E0000E9488008823C1F3E0911301E430C8F430
:1002F00091E09E0F90931301F0E0EB5EFE4F808340
:1003000061E080E00E9468002FEF81EE94E02150D0
:1003100080409040E1F700C0000060E080E00E9473
:100320006800809113018430B9F660E071E085E1E6
:1003300091E00E94B401892B59F482E0809312016C
:1003400080E00E94D80061E080E00E94680009C05F
:100350001092120181E00E94D80060E081E00E94CA
:1003600068000E947B00B8CFFB01DC018D910190F9
:0E03700080190110D9F3990B0895F894FFCF6E
:10037E0035343933003132333435363738392A3063
:02038E0023004A
:00000001FF
